:020000040000fa
:080000000002040000000000f2
:020000040000fa
:100400008f8c200000df2000000188000000000029
:100410000c000700407520000100200011000700bb
:10042000000020000000e000020032000000020096
:10043000000000009e060200000000000040da00fc
:100440000000fe004440a900000020000000e00081
:100450000300320000002000a00188004440a800f2
:100460000000060091018800800078000000eb0089
:1004700015003700e280400032a0b4009101ba00bc
:10048000e280400032a0b4009102ba00e280400055
:1004900032a0b4000002eb00472bde00f507b200eb
:1004a000602ce10004003a000059eb008301e900f0
:1004b000fdff3e00040037006128e100010032002a
:1004c0000082eb00040007001101ba000200e00006
:1004d000e8ff3a00000006003159ba008301e90044
:1004e0000c0032002159ba008301e90008003200f3
:1004f0000400e00003003a00e280400032a0b400b3
:10050000f5ff370011d9ba008301e900faff3a007c
:100510008100e800e180400032a0b4000000060045
:020000040000fa
:100008006a0700006a0700006a0700006a07000024
:100018006a0700006a0700006a0700006a07000014
:10002800c60300006a0700006a07000052060000c5
:100038006a0700006a0700006a0700006a070000f4
:100048006a0700006a0700006a0700006a070000e4
:100058006a0700006a0700006a0700006a070000d4
:100068006a0700006a0700006a07000086060000a9
:100078006a0700006a0700006a0700006a070000b4
:100088006a0700006a0700006a0700006a070000a4
:100098006a0700006a0700006a0700006a07000094
:1000a8006a0700006a0700006a0700006a07000084
:1000b8006a0700006a0700006a0700006a07000074
:1000c8006a0700006a0700006a0700006a07000064
:1000d8006a0700006a0700006a0700006a07000054
:1000e8006a0700006a0700006a0700006a07000044
:1000f8006a0700006a0700006a0700006a07000034
:100108006a0700006a0700006a0700006a07000023
:100118006a0700006a0700006a0700006a07000013
:100128006a0700006a0700006a0700006a07000003
:100138006a0700006a0700006a0700006a070000f3
:100148006a0700006a0700006a0700006a070000e3
:100158006a0700006a0700006a0700006a070000d3
:100168006a0700006a0700006a0700006a070000c3
:100178006a0700006a0700006a0700006a070000b3
:100188006a0700006a0700006a0700006a070000a3
:100198006a0700006a0700006a0700006a07000093
:1001a8006a0700006a0700006a0700006a07000083
:1001b8006a0700006a0700006a0700006a07000073
:1001c8006a0700006a0700006a0700006a07000063
:1001d8006a0700006a0700006a0700006a07000053
:1001e8006a0700006a0700006a0700006a07000043
:0801f8006a0700006a0700001d
:020000040000fa
:100208006a0700006a0700006a0700006a07000022
:100218006a0700006a0700006a0700006a07000012
:10022800c60300006a0700006a07000052060000c3
:100238006a0700006a0700006a0700006a070000f2
:100248006a0700006a0700006a0700006a070000e2
:100258006a0700006a0700006a0700006a070000d2
:100268006a0700006a0700006a07000086060000a7
:100278006a0700006a0700006a0700006a070000b2
:100288006a0700006a0700006a0700006a070000a2
:100298006a0700006a0700006a0700006a07000092
:1002a8006a0700006a0700006a0700006a07000082
:1002b8006a0700006a0700006a0700006a07000072
:1002c8006a0700006a0700006a0700006a07000062
:1002d8006a0700006a0700006a0700006a07000052
:1002e8006a0700006a0700006a0700006a07000042
:1002f8006a0700006a0700006a0700006a07000032
:100308006a0700006a0700006a0700006a07000021
:100318006a0700006a0700006a0700006a07000011
:100328006a0700006a0700006a0700006a07000001
:100338006a0700006a0700006a0700006a070000f1
:100348006a0700006a0700006a0700006a070000e1
:100358006a0700006a0700006a0700006a070000d1
:100368006a0700006a0700006a0700006a070000c1
:100378006a0700006a0700006a0700006a070000b1
:100388006a0700006a0700006a0700006a070000a1
:100398006a0700006a0700006a0700006a07000091
:1003a8006a0700006a0700006a0700006a07000081
:1003b8006a0700006a0700006a0700006a07000071
:1003c8006a0700006a0700006a0700006a07000061
:1003d8006a0700006a0700006a0700006a07000051
:1003e8006a0700006a0700006a0700006a07000041
:0803f8006a0700006a0700001b
:020000040000fa
:0200000401f009
:040000000f000000ed
:020000040000fa
:0200000401f009
:0400080003000000f1
:020000040000fa
:0200000401f009
:04000c0007000000e9
:020000040000fa
:0200000401f009
:04001000db00000011
:020000040000fa
:0200000401f009
:040014005f00000089
:020000040000fa
:0200000401f009
:040018007b00000069
:020000040000fa
:0200000401f009
:04001c00c30000001d
:020000040000fa
:0200000401f009
:04002000ff000000dd
:020000040000fa
:100520000600fa0010079800414798004e409000de
:100530008080fb001e0090000100680010079800fa
:100540000000eb00000f78000e0037001e00900046
:10055000610060000004e000060032001e00900010
:100560008000d10010002a00008068001007980069
:10057000030037001e0090000000d1001007980013
:100580001e0fe800700020009e0f1000efff3400e7
:100590001e0090000080fa00000006000400fa002f
:1005a000204798008540a90040128000004f780045
:1005b0002e4090000080fb004012880085c0bf00e4
:1005c000644060000004e000fcff32000080fa009c
:1005d000000006000200fa00004f78001e4078007c
:1005e000eeff0700401280000080fb000080fa0050
:1005f000000006000000fa000040eb00e7ff0700e3
:10060000401280000080fb000080fa00000006001d
:100610000400fa0010079800ca42a9001e009000ca
:100620004800de00ebff07000080fb004800dd0013
:10063000000f78001e009000e6ff07000080fb001e
:100640001e0f7000ca42a8001e0078000080fa0049
:10065000000006000200fa00000f7800ca42a9005c
:100660001e0078004800de00ccff07001e00780066
:10067000caff0700ca42a8000080fa000000060076
:100680000800fa00004f78001147980022479800b0
:100690003347980044479800c942a800c9a2a9005e
:1006a000c962a900cda2a900cd62a900cb42a800d1
:1006b0001e40780086e8b7002e40900087e8b7001b
:1006c0000000eb00e3ff070050202800e1ff0700d7
:1006d00000802b00dfff0700020037000000eb0066
:1006e000dcff0700cac2bf0001c8b30001406000c0
:1006f0000004e000f9ff32001e4090000080fb0083
:100700004400dd0080007800700c2800008070003c
:10071000d0ff070000642a00ceff0700204a29000e
:10072000ccff0700c02a2c00caff070010a82c002d
:10073000c8ff070030482c00c6ff07003e4090006d
:10074000e74f500006003e003e4090008080fb00d6
:100750000085290080807000310798000200370072
:1007600070852900300798003e009000b9ff07000f
:1007700070c72c00b7ff070040c0b30089e8b7007e
:100780008400a9000080fa000000060000a0fe001e
:100790003600f800849fbe00869fbe003400f8003b
:1007a00004002000a40188000400fa0084c0bf00f7
:1007b000614060000004e000540032000000eb00e3
:1007c000a4ff070089c8bf000004e00012003d003c
:1007d0009188200091407800c0c8bf0000c0400050
:1007e0000040e900004f78000140e80089e8b700c8
:1007f0009e80fb0000802000008040009040780038
:1008000011479800504480009e40900044ff07002c
:10081000504488003700370089c8bf008000fb00c3
:10082000110798000040e80089e8b7001e0090001a
:10083000e30f5000280032009e009000e38f50002c
:1008400007003c001e0090000000e0001b0032008a
:100850009e009000e18f50001b0032002300370003
:100860001e009000ea0f50000a0032009e00900027
:10087000eb8f50000a0032001e009000e90f50007c
:100880000100320019003700d0c2b30010479800b1
:100890001800370040cdb30010479800150037000e
:1008a000018c20009140780011479800c0c8bf001b
:1008b0000040ea0089e8b7000e003700504480008d
:1008c000104798000b003700504480004800de00bd
:1008d0001047980007003700d02028004cff070081
:1008e000a0cab3001047980002003700a0cab300a6
:1008f000104798001e4090008080fb0000802b0075
:100900000080400042ff07008400a9000080fa0038
:100910003400f9004f03be004f02be003600f9005c
:100920000080fe00004006000200fa00004f780040
:100930001e407800c0e8b7000080eb0050448800fb
:10094000018c20009140780050448000f4fe0700a4
:100950005044880070c0b30089e8b700d023280055
:100960002bff07000080fa00000006000800fa00d4
:1009700020079800614798000000eb0010079800de
:100980001e0037002e009000104078000080fb0011
:10099000c800dd001e0090000100680010079800ec
:1009a0002e0090000000e800200798000040eb00b7
:1009b000004f78000e0037001e0090000000e0009d
:1009c00007003d001e0090000000400080007800fd
:1009d0001002210000806800100798000300370013
:1009e0001e00900000004000100798001e4fe80015
:1009f00070c0b3009e4f1000efff36006e409000b5
:100a00000040e900604798006e4090000004e0005c
:100a1000dcff3d001e0090000080fa000000060090
:100a20000c00fa004007980051079800406420002d
:100a300010079800f000200000328800100221000a
:100a4000103288000000eb00303288000040eb00dc
:100a5000004f78000000eb002007980017003700d7
:100a60004e009000904078001e00900001487800f1
:100a70004e0090000000e800400798001e04a2000d
:100a8000016420009140780000c8b30000c06000fd
:100a90000004e000060032004086a80040c6bf0007
:100aa0000044b2000004e000fcff32004086a900d0
:100ab0002e0090000000e80020079800ae00900093
:100ac0005e009000808f5000e5ff390040c6bf00f7
:100ad000704060000004e00001003a004086a80079
:100ae0001e04e00003003a000000eb002032880002
:100af000030037009e0090000040eb008048780023
:100b000040c6bf000044b2000004e000fcff320019
:100b100000000000000000000000000000000000d5
:100b2000000000004086a9000000000010c0b300d3
:100b30009e4f100017003a000000eb0020079800bd
:100b40001100370031328000000028000080600072
:100b500030079800303280000000400030328800ba
:100b60003e0090000000e0000400320030328000bf
:100b70001102210001006800303288002e00900030
:100b80000000e800200798002e009000e70f5000ba
:100b9000ecff3600303280000080fa0000000600d2
:100ba0000000fa00cde2a800c9e2a900c442a900f1
:100bb000c042a9003007200000168800b07f250041
:100bc00040168800c842a900c062a800c8e2a80078
:100bd000ca42a8006880a8006b00a8006b60a8004b
:100be000cc02a8000000eb00800388000000eb00ae
:100bf00090038800f0132000101288000000eb0022
:100c00002012880041e2a80000d02000703a88003d
:100c100040bd2e0060198800b04221008019880074
:100c20001132200091407800c0cfb30000c06000b6
:100c30000014a00021e3b7000132200091407800a9
:100c400000ceb30000c0700020e3b70000f0290020
:100c500020198800213220009140780030ccb30068
:100c600000c060004041b30022e3b7002343a80066
:100c700021e3a800801a2600100888000001200047
:100c8000200888008200a8008400a9009400a80021
:100c90008460a9009460a80005e1a8000080fa0023
:100ca000000006003600f800809fbe00829fbe0054
:100cb000849fbe00869fbe000000fa0050c5b300ae
:100cc00000e8b700a0cab30001e8b700c6c8bf007b
:100cd00002e8b7000040e800c6e8b700c442a80038
:100ce00030c0b30010ff0700c442a9008460a9000f
:100cf0000080fa004f03be004f02be004f01be004d
:100d00004f00be003600f9000040060000a0fe00c3
:100d10003400f800881f780008002000a80188002f
:100d20004f0478000000fa008660a9000080fa00f5
:100d30003400f9000080fe00004006000000fa00c8
:100d400097ff0700840020008001eb005200200084
:100d500021002000b000200049fe0700cac2bf00e9
:100d60000080fb004600de0061406000c700dd003f
:100d7000c4c2bf000074a10001407000c4e2b7000b
:100d8000cac2bf000080fb004500de000004a200d4
:100d9000614060006140600061406000c700dd00ac
:100da0004fc7bf000074a100014070004fe7b700bb
:100db000eaff37000800fa00200798003107980082
:100dc000ae009000800220000009b8002e009000c4
:100dd0006000b9000302780000024200be009000eb
:100de000800220000088b9000002420084017800df
:100df0000200be00008fbe001e01be0040fd2f009d
:100e0000f1ff2f000200400083804800008fbe00e9
:100e10001e00be00e00f5000e08f580009003400b3
:100e2000040037001e00be006b005000e080580038
:100e3000008fbe001e00be00e00f5000e08f580083
:100e4000f8ff3c000080fa00000006000400fa00f1
:100e5000100798000c00370040c0b300004f780026
:100e6000030037009001200001002000d1ff07009f
:100e70001e4078000040e900004f78001e407800d6
:100e8000e14f4000f7ff3a001e0090000000e9002b
:100e9000100798001e009000e10f4000eeff3a009e
:080ea0000080fa0000000600ca
:020000040000fa
:100ea80000080000c200000000000000c6080000a2
:100eb800020000000200000000000000c20800005c
:0c0ec8000400000000000000000000001a
:020000040000fa
:040ed4000000fe001c
:00000001FF
